:02000000532B80
:10000600403083120313F0001F30F100F201F301B8
:020016000800E0
:10001800831203132230FC00F801F901FA01FB01F5
:10002800FC03031942280310FB0CFA0CF90CF80C1A
:10003800F30CF20CF10CF00C031C1428FC0303194C
:1000480034287408F80775080318750FF907760837
:100058000318760FFA0777080318770FFB07182895
:100068007408F80775080318750FF9077608031858
:0E007800760FFA0777080318770FFB070800CA
:1000860083120313FB01FA01F901F801A001730DB4
:10009600F80D7408F8027508031C750FF902760846
:1000A600031C760FFA027708031C770FFB02000188
:1000B600031C0130A002F30D0730FC00730DF80D90
:1000C600F90DFA0DFB0DA00D7408731C7C28F802BF
:1000D6007508031C750FF9027608031C760FFA02E1
:1000E6007708031C770FFB020001031C0130A002F6
:1000F6008D28F80775080318750FF9077608031891
:10010600760FFA0777080318770FFB070001031825
:100116000130A007F30DFC0B6128720DF80DF90DE7
:10012600FA0DFB0DA00D7408731CAB28F8027508B8
:10013600031C750FF9027608031C760FFA0277087E
:10014600031C770FFB020001031C0130A002BC2830
:10015600F80775080318750FF90776080318760F60
:10016600FA0777080318770FFB0700010318013019
:10017600A007F20D0730FC00720DF80DF90DFA0D0F
:10018600FB0DA00D7408721CDA28F8027508031C12
:10019600750FF9027608031C760FFA027708031C1E
:1001A600770FFB020001031C0130A002EB28F807C1
:1001B60075080318750FF90776080318760FFA07FE
:1001C60077080318770FFB07000103180130A00713
:1001D600F20DFC0BBF28710DF80DF90DFA0DFB0D94
:1001E600A00D7408721C0929F8027508031C750F06
:1001F600F9027608031C760FFA027708031C770FBC
:10020600FB020001031C0130A0021A29F807750839
:100216000318750FF90776080318760FFA0777089B
:100226000318770FFB07000103180130A007F10D33
:100236000730FC00710DF80DF90DFA0DFB0DA00D40
:100246007408711C3829F8027508031C750FF90229
:100256007608031C760FFA027708031C770FFB0259
:100266000001031C0130A0024929F807750803188C
:10027600750FF90776080318760FFA07770803183B
:10028600770FFB07000103180130A007F10DFC0BE7
:100296001D29700DF80DF90DFA0DFB0DA00D740852
:1002A600711C6729F8027508031C750FF902760898
:1002B600031C760FFA027708031C770FFB02000176
:1002C600031C0130A0027829F80775080318750F7A
:1002D600F90776080318760FFA0777080318770FD9
:1002E600FB07000103180130A007F00D0730FC00E2
:1002F600700DF80DF90DFA0DFB0DA00D7408701CAC
:100306009629F8027508031C750FF9027608031C76
:10031600760FFA027708031C770FFB020001031C15
:100326000130A002A729F80775080318750FF90709
:1003360076080318760FFA0777080318770FFB0776
:10034600000103180130A007F00DFC0B7B29701883
:10035600BA297408F80775080318750FF90776089F
:100366000318760FFA0777080318770FFB070800BC
:1003760083120313B603B6033608003C0318C829D4
:10038600B603000000000000BF29000000000000C6
:0603960000000000080059
:10039C0083120313F801F9011030FC00710DF80DF4
:1003AC00F90D7408F8027508031C750FF90203188F
:1003BC00E6297408F80775080318750FF907031078
:0A03CC00F00DF10DFC0BD429080020
:1003D6000320E830F4000330F500F601F7010C20A5
:1003E6007008B2007108B3007208B4007308B50053
:1003F6002A08F4002B08F500F601F70143207008DF
:10040600B2007108B3007208B4007308B500700832
:10041600F5007108F6007208F7007308F800F80C8A
:10042600F70CF60CF50CF813F80CF70CF60CF50CAB
:10043600F8137508F0007608F1007708F2007808DE
:10044600F300F30CF20CF10CF00CF3137008AE0091
:100456007108AF0003202C08F4002D08F500F60102
:10046600F7010C202E08F9002F08FA00FB01FC0109
:100476000330F8007908F4007A08F5007B08F600E6
:100486007C08F700780803194F2AF40DF50DF60DD0
:10049600F70D7410FF3E462A43207008B20071081B
:1004A600B3007208B4007308B5000A30F4000030D7
:1004B600F5002E08F0002F08F100CE217008AE00DE
:1004C6007108AF0000307102031D6B2A0330700201
:1004D60003186E2ABB2A230884003508003C031D36
:1004E6007E2A3408003C031D7E2A3308003C031D87
:1004F6007E2A3208003C0318B92A220880042F08F5
:100506000319952AB001B10100303102031D8D2A6D
:100516002F0830020318952AB601BB21B00A031929
:10052600B10A872A2E08B600BB21210880052F08AC
:100536000319AD2AB001B10100303102031DA52A0D
:100546002F0830020318AD2AB601BB21B00A0319E1
:10055600B10A9F2A2E08B600BB210130B202031C45
:10056600B302031CB402031CB502702A21088005DD
:0205760008007B
:10057800831203132808A3002908F1000130F000B2
:1005880071080319CB2AF00D7010FF3EC52A7008B8
:10059800A200F0097008A1008030280784007008C4
:0A05A8008005841370088005080028
:1005B200EE3083120313AA000130AB006430AC00AA
:0805C2000030AD00EB21080040
:1005CA0083160313981690308312980083168717A0
:1005DA00071383128C1EF42A1A08F000EE2A080068
:0E05EA008312031325088A00240882000800EB
:1005F800B83083120313AA000130AB006430AC009A
:080608000030AD00EB210800F9
:06061000D922FC220800C3
:10061600831203131A08F100981C132B18121816CC
:060626007108F00008005D
:10062C00F5228A110A128000840AA40A0319A50A69
:08063C00F003031D162B08005A
:100644008316031788018901FF3083120313850081
:10065400FF30831685008312860183168601F030ED
:100664008700831287018316880183128801093069
:10067400A800A901BC227030AA000330AB00F430FA
:10068400AC000130AD00EB21193083169900181528
:04069400E522080053
:0E0698000030831203138C1A0130F0000800AA
:1006A6002223A6014C2370080319732BA6010B23E2
:1006B6007008A70070088800133070020318652BB5
:1006C6000715722B1E3027020318702B2708133CC0
:1006D6000318702B08230715722B071109107A2BA4
:1006E600A60A2608643C03187A2B07110910552B15
:0206F6007B2B5C
:04400E00F42F000784
:00000001FF
