:02000000B82B1B
:10000600403083120313F0001F30F100F201F301B8
:020016000800E0
:10001800831203132230FC00F801F901FA01FB01F5
:10002800FC03031942280310FB0CFA0CF90CF80C1A
:10003800F30CF20CF10CF00C031C1428FC0303194C
:1000480034287408F80775080318750FF907760837
:100058000318760FFA0777080318770FFB07182895
:100068007408F80775080318750FF9077608031858
:0E007800760FFA0777080318770FFB070800CA
:1000860083120313FB01FA01F901F801A001730DB4
:10009600F80D7408F8027508031C750FF902760846
:1000A600031C760FFA027708031C770FFB02000188
:1000B600031C0130A002F30D0730FC00730DF80D90
:1000C600F90DFA0DFB0DA00D7408731C7C28F802BF
:1000D6007508031C750FF9027608031C760FFA02E1
:1000E6007708031C770FFB020001031C0130A002F6
:1000F6008D28F80775080318750FF9077608031891
:10010600760FFA0777080318770FFB070001031825
:100116000130A007F30DFC0B6128720DF80DF90DE7
:10012600FA0DFB0DA00D7408731CAB28F8027508B8
:10013600031C750FF9027608031C760FFA0277087E
:10014600031C770FFB020001031C0130A002BC2830
:10015600F80775080318750FF90776080318760F60
:10016600FA0777080318770FFB0700010318013019
:10017600A007F20D0730FC00720DF80DF90DFA0D0F
:10018600FB0DA00D7408721CDA28F8027508031C12
:10019600750FF9027608031C760FFA027708031C1E
:1001A600770FFB020001031C0130A002EB28F807C1
:1001B60075080318750FF90776080318760FFA07FE
:1001C60077080318770FFB07000103180130A00713
:1001D600F20DFC0BBF28710DF80DF90DFA0DFB0D94
:1001E600A00D7408721C0929F8027508031C750F06
:1001F600F9027608031C760FFA027708031C770FBC
:10020600FB020001031C0130A0021A29F807750839
:100216000318750FF90776080318760FFA0777089B
:100226000318770FFB07000103180130A007F10D33
:100236000730FC00710DF80DF90DFA0DFB0DA00D40
:100246007408711C3829F8027508031C750FF90229
:100256007608031C760FFA027708031C770FFB0259
:100266000001031C0130A0024929F807750803188C
:10027600750FF90776080318760FFA07770803183B
:10028600770FFB07000103180130A007F10DFC0BE7
:100296001D29700DF80DF90DFA0DFB0DA00D740852
:1002A600711C6729F8027508031C750FF902760898
:1002B600031C760FFA027708031C770FFB02000176
:1002C600031C0130A0027829F80775080318750F7A
:1002D600F90776080318760FFA0777080318770FD9
:1002E600FB07000103180130A007F00D0730FC00E2
:1002F600700DF80DF90DFA0DFB0DA00D7408701CAC
:100306009629F8027508031C750FF9027608031C76
:10031600760FFA027708031C770FFB020001031C15
:100326000130A002A729F80775080318750FF90709
:1003360076080318760FFA0777080318770FFB0776
:10034600000103180130A007F00DFC0B7B29701883
:10035600BA297408F80775080318750FF90776089F
:100366000318760FFA0777080318770FFB070800BC
:1003760083120313F801F9011030FC00710DF80D1A
:10038600F90D7408F8027508031C750FF9020318B5
:10039600D3297408F80775080318750FF9070310B1
:0A03A600F00DF10DFC0BC129080059
:1003B00083120313B703B7033708003C0318E5297A
:1003C000B703000000000000DC290000000000006E
:0603D0000000000008001F
:1003D6000320E830F4000330F500F601F7010C20A5
:1003E6007008B3007108B4007208B5007308B6004F
:1003F6002B08F4002C08F500F601F70143207008DD
:10040600B3007108B4007208B5007308B60070082E
:10041600F5007108F6007208F7007308F800F80C8A
:10042600F70CF60CF50CF813F80CF70CF60CF50CAB
:10043600F8137508F0007608F1007708F2007808DE
:10044600F300F30CF20CF10CF00CF3137008AF0090
:100456007108B00003202D08F4002E08F500F601FF
:10046600F7010C202F08F9003008FA00FB01FC0107
:100476000330F8007908F4007A08F5007B08F600E6
:100486007C08F700780803194F2AF40DF50DF60DD0
:10049600F70D7410FF3E462A43207008B30071081A
:1004A600B4007208B5007308B6000A30F4000030D4
:1004B600F5002F08F0003008F100BB217008AF00EE
:1004C6007108B00000307102031D6B2A0330700200
:1004D60003186E2ABB2A230884003608003C031D35
:1004E6007E2A3508003C031D7E2A3408003C031D85
:1004F6007E2A3308003C0318B92A220880043008F3
:100506000319952AB101B20100303202031D8D2A6A
:10051600300831020318952AB701D821B10A031908
:10052600B20A872A2F08B700D8212108800530088B
:100536000319AD2AB101B20100303202031DA52A0A
:10054600300831020318AD2AB701D821B10A0319C0
:10055600B20A9F2A2F08B700D8210130B302031C24
:10056600B402031CB502031CB602702A21088005DA
:0205760008007B
:0E0578008312031325088A002408820008005D
:10058600EE3083120313AB000130AC006430AD00D3
:080596000030AE00EB2108006B
:10059E0083160313981690308312980083168717CC
:1005AE00071383128C1EDE2A1A08F000D82A0800C0
:1005BE00831203132908A3002A08F1000130F0006A
:1005CE0071080319EE2AF00D7010FF3EE82A70082C
:1005DE00A200F0097008A10080302907840070087D
:0A05EE0080058413700880050800E2
:1005F80083120313FB01FA01F9018030F800F10CB2
:10060800F00C031C102B7408F90775080318750FF4
:10061800FA070318FB0A0310F01F182B7408FA07CF
:1006280075080318750FFB07FB0CFA0CF90CF80C8E
:10063800031C032B7B08F3007A08F2007908F10009
:060648007808F000080034
:10064E00B83083120313AB000130AC006430AD0040
:08065E000030AE00EB210800A2
:10066600831603131208013EF000F1010318F10A84
:1006760083122808F400F501FC220630F200700807
:10068600F4007108F500720803194E2BF50CF40CF2
:10069600F513FF3E472B0430F1007408F000710893
:1006A6000319592BF00D7010FF3E532B3030700597
:1006B600F3007408F0007508F100F10CF00CF1136A
:1006C600F10CF00CF113700895000F3097057308C4
:0406D600970408007D
:1006DA00831203131A08F100981C752B18121816A6
:0606EA007108F000080099
:0606F000C32227230800CD
:0E06F6000030831203138C1A0130F00008004C
:100704008316031788018901FF30831203138500C0
:10071400FF30831685008312860183168601F0302C
:1007240087008312870183168801831288010930A8
:10073400A900AA01DF227030AB000330AC00F43012
:10074400AD000130AE00EB21193083169900181565
:04075400CF220800A8
:10075800BC228A110A128000840AA40A0319A50A75
:08076800F003031DAC2B080097
:1007700082238030A6007B2370080319DA2B6D23B7
:100780007008A70070088800133070020318CA2B85
:100790000715D92B1E3027020318D52B2708133C29
:1007A0000318D52B07157823D92B07110910A80199
:0A07B0003323DB2B0910BB2BDC2BDD
:04400E00F42F000784
:00000001FF
