:02000000CE2B05
:10000600831203132230FC00F801F901FA01FB0107
:10001600FC03031939280310FB0CFA0CF90CF80C35
:10002600F30CF20CF10CF00C031C0B28FC03031967
:100036002B287408F80775080318750FF907760852
:100046000318760FFA0777080318770FFB070F28B0
:100056007408F80775080318750FF907760803186A
:0E006600760FFA0777080318770FFB070800DC
:1000740083120313B903B9033908003C0318472852
:10008400B9030000000000003E280000000000004A
:060094000000000008005E
:10009A00403083120313F0001F30F100F201F30124
:0200AA0008004C
:1000AC0083120313FB01FA01F901F801A001730D8E
:1000BC00F80D7408F8027508031C750FF902760820
:1000CC00031C760FFA027708031C770FFB02000162
:1000DC00031C0130A002F30D0730FC00730DF80D6A
:1000EC00F90DFA0DFB0DA00D7408731C8F28F80286
:1000FC007508031C750FF9027608031C760FFA02BB
:10010C007708031C770FFB020001031C0130A002CF
:10011C00A028F80775080318750FF9077608031857
:10012C00760FFA0777080318770FFB0700010318FF
:10013C000130A007F30DFC0B7428720DF80DF90DAE
:10014C00FA0DFB0DA00D7408731CBE28F80275087F
:10015C00031C750FF9027608031C760FFA02770858
:10016C00031C770FFB020001031C0130A002CF28F7
:10017C00F80775080318750FF90776080318760F3A
:10018C00FA0777080318770FFB07000103180130F3
:10019C00A007F20D0730FC00720DF80DF90DFA0DE9
:1001AC00FB0DA00D7408721CED28F8027508031CD9
:1001BC00750FF9027608031C760FFA027708031CF8
:1001CC00770FFB020001031C0130A002FE28F80788
:1001DC0075080318750FF90776080318760FFA07D8
:1001EC0077080318770FFB07000103180130A007ED
:1001FC00F20DFC0BD228710DF80DF90DFA0DFB0D5B
:10020C00A00D7408721C1C29F8027508031C750FCC
:10021C00F9027608031C760FFA027708031C770F95
:10022C00FB020001031C0130A0022D29F807750800
:10023C000318750FF90776080318760FFA07770875
:10024C000318770FFB07000103180130A007F10D0D
:10025C000730FC00710DF80DF90DFA0DFB0DA00D1A
:10026C007408711C4B29F8027508031C750FF902F0
:10027C007608031C760FFA027708031C770FFB0233
:10028C000001031C0130A0025C29F8077508031853
:10029C00750FF90776080318760FFA077708031815
:1002AC00770FFB07000103180130A007F10DFC0BC1
:1002BC003029700DF80DF90DFA0DFB0DA00D740819
:1002CC00711C7A29F8027508031C750FF90276085F
:1002DC00031C760FFA027708031C770FFB02000150
:1002EC00031C0130A0028B29F80775080318750F41
:1002FC00F90776080318760FFA0777080318770FB3
:10030C00FB07000103180130A007F00D0730FC00BB
:10031C00700DF80DF90DFA0DFB0DA00D7408701C85
:10032C00A929F8027508031C750FF9027608031C3D
:10033C00760FFA027708031C770FFB020001031CEF
:10034C000130A002BA29F80775080318750FF907D0
:10035C0076080318760FFA0777080318770FFB0750
:10036C00000103180130A007F00DFC0B8E2970184A
:10037C00CD297408F80775080318750FF907760866
:10038C000318760FFA0777080318770FFB07080096
:10039C0083120313F801F9011030FC00710DF80DF4
:1003AC00F90D7408F8027508031C750FF90203188F
:1003BC00E6297408F80775080318750FF907031078
:0A03CC00F00DF10DFC0BD429080020
:1003D6004D20E830F4000330F500F601F701032064
:1003E6007008B5007108B6007208B7007308B80047
:1003F6002D08F4002E08F500F601F70156207008C6
:10040600B5007108B6007208B7007308B800700826
:10041600F5007108F6007208F7007308F800F80C8A
:10042600F70CF60CF50CF813F80CF70CF60CF50CAB
:10043600F8137508F0007608F1007708F2007808DE
:10044600F300F30CF20CF10CF00CF3137008B1008E
:100456007108B2004D202F08F4003008F500F601AF
:10046600F70103203108F9003208FA00FB01FC010C
:100476000330F8007908F4007A08F5007B08F600E6
:100486007C08F700780803194F2AF40DF50DF60DD0
:10049600F70D7410FF3E462A56207008B500710805
:1004A600B6007208B7007308B8000A30F4000030CE
:1004B600F5003108F0003208F100CE217008B100D5
:1004C6007108B20000307102031D6B2A03307002FE
:1004D60003186E2ABB2A230884003808003C031D33
:1004E6007E2A3708003C031D7E2A3608003C031D81
:1004F6007E2A3508003C0318B92A220880043208EF
:100506000319952AB301B40100303402031D8D2A64
:10051600320833020318952AB9013A20B30A03199F
:10052600B40A872A3108B9003A2021088005320822
:100536000319AD2AB301B40100303402031DA52A04
:10054600320833020318AD2AB9013A20B30A031957
:10055600B40A9F2A3108B9003A200130B502031CBB
:10056600B602031CB702031CB802702A21088005D4
:0205760008007B
:10057800831203132908A3002A08F1000130F000B0
:1005880071080319CB2AF00D7010FF3EC52A7008B8
:10059800A200F0097008A1008030290784007008C3
:0A05A8008005841370088005080028
:1005B20083120313FB01FA01F9018030F800F10CF8
:1005C200F00C031CED2A7408F90775080318750F5F
:1005D200FA070318FB0A0310F01FF52A7408FA073A
:1005E20075080318750FFB07FB0CFA0CF90CF80CD5
:1005F200031CE02A7B08F3007A08F2007908F10074
:060602007808F00008007A
:0C060800831203139501171297120800CB
:0E0614008312031326088A00250882000800BE
:10062200EE3083120313AD000130AE006430AF0030
:080632000030B000EB210800CC
:10063A00831603139816903083129800831687172F
:10064A00071383128C1E2C2B1A08F000262B080085
:10065A00B83083120313AD000130AE006430AF002E
:08066A000030B000EB21080094
:10067200831203131A08F100981C412B1812181642
:060682007108F000080001
:10068800831603131208013EF000F1010318F10A62
:1006980083122808F400F501D9220630F200700808
:1006A800F4007108F500720803195F2BF50CF40CBF
:1006B800F513FF3E582B0430F1007408F000710860
:1006C80003196A2BF00D7010FF3E642B3030700553
:1006D800F3007408F0007508F100F10CF00CF11348
:1006E800F10CF00CF113700895000F3097057308A2
:0406F800970408005B
:0E06FC000030831203138C1A0130F000080046
:10070A000A238A110A128000840AA50A0319A60A72
:08071A00F003031D852B08000C
:10072200831603130711831212150C309704080065
:100732008316031788018901831287138813FF30F8
:1007420003138500FF30831685008312860183160A
:100752008601F03087008312870183168801831295
:1007620088010930A900AA01BC227030AD00033013
:10077200AE00F430AF000130B000EB21121492143D
:100782008A308316920004231930831699001815B3
:040792001D2308001B
:0607960011232D230800D1
:10079C0099238030A4009123A80144237E23700860
:1007AC000319F32B39237008A70070088800133045
:1007BC0070020318E32B0714F22B1E3027020318C8
:1007CC00EE2B2708133C0318EE2B0714CB23F22B2C
:1007DC0007100910A8014423F42B0910D42BF52B76
:04400E00F42F000784
:00000001FF
