:02000000902B43
:10000800FF00030E8301B3000A08B4008A017008D8
:10001800A2007D08A10010148B138B18A328861C3E
:100028001628132810100F08F300F4017308F100C4
:10003800F0017008AC007108AD000E08F007031855
:10004800F10A7008AC007108AD000A30F400003005
:10005800F50082227008F4007108F500F40DF50D22
:100068007410F40DF50D7410F40DF50D741074087A
:10007800F0007508F1006C227008A5007108A60050
:100088007208A7007308A8000030F4000030F500DB
:100098006830F6008430F700B5217008B5007108A3
:1000A800B6007208B7007308B8003508AE00360805
:1000B800AF003708B0003808B1003508F00036083E
:1000C800F1003708F2003808F3009F227008880012
:1000D8000030F4000030F5007030F6008230F70090
:1000E8003508F0003608F1003708F2003808F30048
:1000F800E222013003180030F000700803198C2840
:100108000130A4000130B9002308BA003223912835
:10011800A401B9012308BA0032230B108B178F01F1
:100128008E010230FB000430FC00BA30FD00FD0BEC
:100138009B28FC0B9B28FB0B9B28000027298B1C6A
:100148002729061CA828A52810100F08F300F40179
:100158007308F100F0017008AC007108AD000E08DA
:10016800F0070318F10A7008AC007108AD000A30F6
:10017800F4000030F50082227008F4007108F500E0
:10018800F40DF50D7410F40DF50D7410F40DF50D56
:1001980074107408F0007508F1006C227008A5004E
:1001A8007108A6007208A7007308A8000030F400C0
:1001B8000030F5006830F6008430F700B52170088B
:1001C800B5007108B6007208B7007308B8003508A2
:1001D800AE003608AF003708B0003808B10035085F
:1001E800F0003608F1003708F2003808F3009F22C3
:1001F800700888003508F4003608F5003708F6005E
:100208003808F7000030F0000030F1006030F200EC
:100218008130F300E222013003180030F00070084A
:1002280003191E290130A3002408B9000130BA00BF
:1002380032232329A3012408B900BA0132238B10E1
:100248008B178F018E012208F0002108FD00340869
:0C0258008A00330E8300FF0E7F0E0900A9
:100264007B15FB1F3C290130F300F201F101F00181
:08027400FA0DF20CFF30080046
:08027C00FA1FF2130030080024
:0E028400F201F101F001F801F3010030080071
:0E029200831203132A088A002908820008003C
:1002A00083160313981690308312980083168717CD
:1002B000071383128C1E5F291A08F00059290800C1
:1002C0007B14FB1F6B29F201FA1FFF30F200F100D3
:0A02D000F000FA0DF20CFF300800F8
:1002DA00A0017208031D82297108F2007008F1005A
:1002EA00F001A0157208031D82297108F200F101BC
:1002FA00A01120167208031990292008F302031D81
:10030A00031C94290310F21B9829F00DF10DF20D2C
:10031A00F30B882994290130FC0042219B290230E1
:0E032A00FC0032219B290430FC003E2108001B
:10033800831603139818A22900009C2983123B08EE
:040348009900080010
:10034C00FB14FB1FB029FF30F300F200F100F000AA
:08035C00FA0DF20CFF3008005D
:06036400FB15FF3008004C
:10036A00831203137408003A031DD0297508003A52
:10037A00031DD0297608003A031DD0297708003AD0
:10038A00031DD029FF30F000FF30F1007F30F2006A
:10039A00FF30F3006B2A83120313770803195F2ACD
:1003AA0073080319622A720876068039FA00F2176E
:1003BA00F617A0017208F8007108FC007008FD0029
:1003CA007408FD027508031C750FFC027608031CED
:1003DA00760FF802F801FC01FD01031CFB2903104A
:1003EA00F20CF10CF00CF80C0130A0007708F302C3
:1003FA00031C052A7E302007F3070318652A0A2AF8
:10040A007E302007F307031C682A1830FA07FD0D0F
:10041A00FC0DF80DF00DF10DF20DA00D7408F002AF
:10042A007508031C750FF1027608031C760FF20299
:10043A00760DA004201C232A7D142E2A7408F007A6
:10044A0075080318750FF10776080318760AF2077C
:10045A007D10FA031F307A05031D0C2A7B1B7D1CB5
:10046A00552A0310F00DF10DF20DA00D7408F002DB
:10047A007508031C750FF1027608031C760FF20249
:10048A00760D20040139FD070318FC0A0319F80A3E
:10049A00031D552AF80CFC0CFD0CF30A0319652AF6
:1004AA00FA1FF8137808F2007C08F1007D08F000C2
:1004BA0000306A2A0130B2216A2A023042216A2AAD
:0E04CA000430A6216A2A083032210000080002
:1004D800831203137008F8007108F000F101F201AB
:1004E800F301FB01FC019630F300FA017008F100FA
:0C04F8007808F000F801F2016D21080006
:1005040083120313F801F9011030FC00710DF80D8A
:10051400F90D7408F8027508031C750FF902031825
:100524009A2A7408F80775080318750FF907031059
:0A053400F00DF10DFC0B882A080001
:10053E0083120313FB01FC01FA0173080319CC2A81
:10054E00FA13F2178630F302F31BB02A0319B02AFE
:10055E00CE2AF309F30A08307302031CBD2AF300F6
:10056E00F20DF2017308031D0310C42A7308031958
:10057E00C42A0310F20CF30BC02A7B1B721CCC2A6C
:10058E00031CCC2AF20A0319D32AF101D62A7B14B2
:10059E00FB1FD92AF101D92A0130FC00DB2A0030D9
:1005AE00FC00DB2AFF30FC00FC080319DF2A602167
:0605BE007208F0000800C5
:1005C40083120313FA017308031D7A147708031DB9
:1005D400FA147A0803192E2B033A0319F92A7A1804
:1005E400F62AF61F2C2B2A2BF21F2A2B2C2B7208EF
:1005F4008039FA00F21376088039F6137A06031963
:10060400072B7A0803192A2B2C2B7708730203195A
:100614000E2B031C222B262B760872020319152B92
:10062400031C222B262B7508710203191C2B031C97
:10063400222B262B7408700203192E2B0318262B49
:10064400FA0803192C2B2A2BFA0803192A2B2C2B12
:10065400031408000310080003140315080008001D
:10066400831203133908013A031D412B3A08003A57
:10067400031D412B0A30AB000A30BB009C213A0811
:10068400013A031D4A2B1430AB001430BB009C21EB
:100694003908003A031D572B3A08003A031D572B1B
:0C06A4006430AB006430BB009C210800F7
:1006B00049218A110A128000840AA90A0319AA0A88
:0806C000F003031D582B080094
:1006C800831603178801890183128713881303137C
:1006D800850183168501FF3083128600FF3083165B
:1006E8008600870183128701831688018312880197
:1006F8008316890183128901193083169900181508
:100708005021203090008B170B178B150B10831678
:0807180096140B168B1008006B
:1007200083120313A301A401642380308312B20057
:100730008F018E0124189E2B09109F2B091423185A
:10074000A32B8910A42B89148618B72B1A30FD000F
:10075000FD0BA82B000005100000000000000000A9
:1007600005140630FD00FD0BB32B00000510061824
:10077000CA2B1A30FD00FD0BBB2B000085100000BA
:1007800000000000000085140630FD00FD0BC62BA4
:0807900000008510982BCB2B13
:04400E00F42F000784
:00000001FF
