:02000000832B50
:10000800FF00030E8301B3000A08B4008A017008D8
:10001800A2007D08A10010148B138B189628861C4B
:100028001628132810100F08F300F4017308F100C4
:10003800F0017008AC007108AD000E08F007031855
:10004800F10A7008AC007108AD000A30F400003005
:10005800F50075227008F4007108F500F40DF50D2F
:100068007410F40DF50D7410F40DF50D741074087A
:10007800F0007508F1005F227008A5007108A6005D
:100088007208A7007308A8000030F4000030F500DB
:100098006830F6008430F700A8217008B5007108B0
:1000A800B6007208B7007308B8003508AE00360805
:1000B800AF003708B0003808B1003508F00036083E
:1000C800F1003708F2003808F3009222700888001F
:1000D8000030F4000030F5007030F6008230F70090
:1000E8003508F0003608F1003708F2003808F30048
:1000F800D522013003180030F000700803198C284D
:100108000130A4000130B9002308BA002523912842
:10011800A401B9012308BA0025230B108B178F01FE
:100128008E011A298B1C1A29061C9B289828101046
:100138000F08F300F4017308F100F0017008AC0037
:100148007108AD000E08F0070318F10A7008AC003A
:100158007108AD000A30F4000030F500752270080F
:10016800F4007108F500F40DF50D7410F40DF50D9B
:100178007410F40DF50D74107408F0007508F10092
:100188005F227008A5007108A6007208A70073080E
:10019800A8000030F4000030F5006830F600843024
:1001A800F700A8217008B5007108B6007208B700FA
:1001B8007308B8003508AE003608AF003708B0003D
:1001C8003808B1003508F0003608F1003708F200A9
:1001D8003808F3009222700888003508F4003608C1
:1001E800F5003708F6003808F7000030F000003056
:1001F800F1006030F2008130F300D522013003189D
:100208000030F0007008031911290130A3002408F8
:10021800B9000130BA0025231629A3012408B90022
:10022800BA0125238B108B178F018E012208F0004D
:100238002108FD0034088A00330E8300FF0E7F0E6C
:020248000900AB
:10024A007B15FB1F2F290130F300F201F101F001A8
:08025A00FA0DF20CFF30080060
:08026200FA1FF213003008003E
:0E026A00F201F101F001F801F301003008008B
:0E027800831203132A088A0029088200080056
:1002860083160313981690308312980083168717E7
:10029600071383128C1E52291A08F0004C290800F5
:1002A6007B14FB1F5E29F201FA1FFF30F200F100FA
:0A02B600F000FA0DF20CFF30080012
:1002C000A0017208031D75297108F2007008F10081
:1002D000F001A0157208031D75297108F200F101E3
:1002E000A01120167208031983292008F302031DA8
:1002F000031C87290310F21B8B29F00DF10DF20D61
:10030000F30B7B2987290130FC0035218E2902302F
:0E031000FC0025218E290430FC00312108005C
:10031E00831603139818952900008F2983123B0822
:04032E00990008002A
:10033200FB14FB1FA329FF30F300F200F100F000D1
:08034200FA0DF20CFF30080077
:06034A00FB15FF30080066
:10035000831203137408003A031DC3297508003A79
:10036000031DC3297608003A031DC3297708003A04
:10037000031DC329FF30F000FF30F1007F30F20091
:10038000FF30F3005E2A8312031377080319522A01
:1003900073080319552A720876068039FA00F21795
:1003A000F617A0017208F8007108FC007008FD0043
:1003B0007408FD027508031C750FFC027608031C07
:1003C000760FF802F801FC01FD01031CEE29031071
:1003D000F20CF10CF00CF80C0130A0007708F302DD
:1003E000031CF8297E302007F3070318582AFD293B
:1003F0007E302007F307031C5B2A1830FA07FD0D37
:10040000FC0DF80DF00DF10DF20DA00D7408F002C9
:100410007508031C750FF1027608031C760FF202B3
:10042000760DA004201C162A7D14212A7408F007DA
:1004300075080318750FF10776080318760AF20796
:100440007D10FA031F307A05031DFF297B1B7D1CDD
:10045000482A0310F00DF10DF20DA00D7408F00202
:100460007508031C750FF1027608031C760FF20263
:10047000760D20040139FD070318FC0A0319F80A58
:10048000031D482AF80CFC0CFD0CF30A0319582A2A
:10049000FA1FF8137808F2007C08F1007D08F000DC
:1004A00000305D2A0130A5215D2A023035215D2A08
:0E04B000043099215D2A083025210000080043
:1004BE00831203137008F8007108F000F101F201C5
:1004CE00F301FB01FC019630F300FA017008F10014
:0C04DE007808F000F801F201602108002D
:1004EA0083120313F801F9011030FC00710DF80DA5
:1004FA00F90D7408F8027508031C750FF902031840
:10050A008D2A7408F80775080318750FF907031080
:0A051A00F00DF10DFC0B7B2A080028
:1005240083120313FB01FC01FA0173080319BF2AA8
:10053400FA13F2178630F302F31BA32A0319A32A32
:10054400C12AF309F30A08307302031CB02AF3002A
:10055400F20DF2017308031D0310B72A730803197F
:10056400B72A0310F20CF30BB32A7B1B721CBF2AAD
:10057400031CBF2AF20A0319C62AF101C92A7B14F3
:10058400FB1FCC2AF101CC2A0130FC00CE2A00301A
:10059400FC00CE2AFF30FC00FC080319D22A5321A8
:0605A4007208F0000800DF
:1005AA0083120313FA017308031D7A147708031DD3
:1005BA00FA147A080319212B033A0319EC2A7A1838
:1005CA00E92AF61F1F2B1D2BF21F1D2B1F2B72084A
:1005DA008039FA00F21376088039F6137A0603197D
:1005EA00FA2A7A0803191D2B1F2B7708730203199D
:1005FA00012B031C152B192B760872020319082BE1
:10060A00031C152B192B7508710203190F2B031CD8
:10061A00152B192B740870020319212B0318192B97
:10062A00FA0803191F2B1D2BFA0803191D2B1F2B60
:10063A000314080003100800031403150800080037
:10064A00831203133908013A031D342B3A08003A7E
:10065A00031D342B0A30AB000A30BB008F213A0845
:10066A00013A031D3D2B1430AB001430BB008F211F
:10067A003908003A031D4A2B3A08003A031D4A2B4F
:0C068A006430AB006430BB008F2108001E
:100696003C218A110A128000840AA90A0319AA0AAF
:0806A600F003031D4B2B0800BB
:1006AE008316031788018901831287138813031396
:1006BE00850183168501FF3083128600FF30831675
:1006CE0086008701831287018316880183128801B1
:1006DE008316890183128901193083169900181522
:1006EE004321203090008B170B178B150B108316A0
:0806FE0096140B168B10080086
:1007060083120313A301A401572380308312B2007E
:100716008F018E012418912B0910922B091423188E
:10072600962B8910972B89148618AA2B1A30FD0050
:10073600FD0B9B2B000005100000000000000000D0
:1007460005140630FD00FD0BA62B0000051006184B
:10075600BD2B1A30FD00FD0BAE2B000085100000EE
:1007660000000000000085140630FD00FD0BB92BCB
:08077600000085108B2BBE2B47
:04400E00F42F000784
:00000001FF
