:02000000D62AFE
:10000800FF00030E8301B2000A08B1008A017008DC
:10001800A2007D08A1001014061C13281028101037
:100028000F08F300F4017308F100F0017008AF0045
:100038007108B0000E08F0070318F10A7008AF0045
:100048007108B0000A30F4000030F500EA217008A9
:10005800F4007108F500F40DF50D7410F40DF50DAC
:100068007410F40DF50D74107408F0007508F100A3
:10007800D4217008AB007108AC007208AD00730899
:10008800AE000030F4000030F5006830F60084302F
:10009800F7001D217008B3007108B4007208B5009C
:1000A8007308B6003308A7003408A8003508A9006B
:1000B8003608AA003308F0003408F1003508F200C9
:1000C8003608F3006122700888000030F400003020
:1000D800F5004830F6008430F7003308F0003408A3
:1000E800F1003508F2003608F30007220130031842
:1000F8000030F0007008031993280330FB00083023
:10010800FC007730FD00FD0B8728FC0B8728FB0BD4
:1001180087280A30A3000A30B7005722982864308D
:10012800A3006430B70057220B102208F000210802
:10013800FD0031088A00320E8300FF0E7F0E090091
:0E014800F201F101F001F801F30100300800AE
:100156007B15FB1FB5280130F300F201F101F00118
:08016600FA0DF20CFF30080055
:08016E00FA1FF2130030080033
:1001760083160313981690308312980083168717F8
:10018600071383128C1ECA281A08F000C428080018
:0E0196008312031325088A0024088200080043
:1001A400A0017208031DE7287108F2007008F1002D
:1001B400F001A0157208031DE7287108F200F1018F
:1001C400A011201672080319F5282008F302031D54
:1001D400031CF9280310F21BFD28F00DF10DF20D9C
:1001E400F30BED28F9280130FC00A420002902308B
:0E01F400FC00AB2000290430FC00B7200800FE
:10020200FB14FB1F0B29FF30F300F200F100F0009A
:08021200FA0DF20CFF300800A8
:06021A00FB15FF30080097
:100220007B14FB1F1B29F201FA1FFF30F200F100C3
:0A023000F000FA0DF20CFF30080098
:10023A00831203137408003A031D38297508003A1B
:10024A00031D38297608003A031D38297708003A31
:10025A00031D3829FF30F000FF30F1007F30F20033
:10026A00FF30F300D3298312031377080319C72930
:10027A0073080319CA29720876068039FA00F21738
:10028A00F617A0017208F8007108FC007008FD005A
:10029A007408FD027508031C750FFC027608031C1E
:1002AA00760FF802F801FC01FD01031C6329031013
:1002BA00F20CF10CF00CF80C0130A0007708F302F4
:1002CA00031C6D297E302007F3070318CD297229F4
:1002DA007E302007F307031CD0291830FA07FD0DDA
:1002EA00FC0DF80DF00DF10DF20DA00D7408F002E1
:1002FA007508031C750FF1027608031C760FF202CB
:10030A00760DA004201C8B297D1496297408F00709
:10031A0075080318750FF10776080318760AF207AD
:10032A007D10FA031F307A05031D74297B1B7D1C7F
:10033A00BD290310F00DF10DF20DA00D7408F002A5
:10034A007508031C750FF1027608031C760FF2027A
:10035A00760D20040139FD070318FC0A0319F80A6F
:10036A00031DBD29F80CFC0CFD0CF30A0319CD2959
:10037A00FA1FF8137808F2007C08F1007D08F000F3
:10038A000030D22901300D21D2290230A420D229ED
:0E039A0004300121D2290830AB2000000800F9
:1003A800831203137008F8007108F000F101F201DC
:1003B800F301FB01FC019630F300FA017008F1002B
:0C03C8007808F000F801F201D2200800D3
:1003D40083120313F801F9011030FC00710DF80DBC
:1003E400F90D7408F8027508031C750FF902031857
:1003F400022A7408F80775080318750FF907031023
:0A040400F00DF10DFC0BF0290800CB
:10040E0083120313FA017308031D7A147708031D70
:10041E00FA147A080319532A033A03191E2A7A1872
:10042E001B2AF61F512A4F2AF21F4F2A512A7208F1
:10043E008039FA00F21376088039F6137A0603191A
:10044E002C2A7A0803194F2A512A770873020319A6
:10045E00332A031C472A4B2A7608720203193A2ABA
:10046E00031C472A4B2A750871020319412A031CE3
:10047E00472A4B2A740870020319532A03184B2A71
:10048E00FA080319512A4F2AFA0803194F2A512A3A
:10049E0003140800031008000314031508000800D5
:1004AE008316031398185D2A0000572A8312370803
:0404BE009900080099
:1004C20083120313FB01FC01FA01730803198E2A3C
:1004D200FA13F2178630F302F31B722A0319722AF7
:1004E200902AF309F30A08307302031C7F2AF300EF
:1004F200F20DF2017308031D0310862A7308031913
:10050200862A0310F20CF30B822A7B1B721C8E2AA2
:10051200031C8E2AF20A0319952AF101982A7B14E8
:10052200FB1F9B2AF1019B2A0130FC009D2A00300F
:10053200FC009D2AFF30FC00FC080319A12A1021AF
:060542007208F000080041
:1005480083160317880189018312871388130313FD
:10055800850183168501FF3083128600FF308316DC
:100568008600870183128701831688018312880118
:100578001930831699001815BB20203090008B176E
:0C0588000B178B150B10831616140800BF
:10059400CB208A110A128000840AA40A0319A50A2E
:0805A400F003031DCA2A080040
:1005AC00A42280308312A6008F018E010618EF2A38
:1005BC001A30FD00FD0BE02A0000051000000000C1
:1005CC000000000005140630FD00FD0BEB2A0000B6
:0605DC000510DA2AF02AE6
:04400E00F22F000786
:00000001FF
