:02000000522B81
:10000800FF00030E8301B3000A08B4008A017008D8
:10001800A2007D08A10010148B138B188C28861C55
:100028001628132810100F08F300F4017308F100C4
:10003800F0017008AC007108AD000E087007F300FD
:1000480071080318013EF4007308AC007408AD0091
:100058007308F0007408F100F00DF10D7010B4226F
:100068007008A5007108A6007208A7007308A80008
:100078000030F4000030F5006830F6008430F700F6
:1000880094217008B5007108B6007208B7007308AB
:10009800B8003508AE003608AF003708B000380899
:1000A800B1003508F0003608F1003708F2003808CA
:1000B800F3004B22700888000030F4000030F5008F
:1000C8007030F6008230F7003508F0003608F1008D
:1000D8003708F2003808F300CA220130031800304C
:1000E800F0007008031980280130A4000130B9001D
:1000F8002308BA008E228528A401B9012308BA0072
:100108008E220B108B178F018E018B110B1606296F
:100118008B1C0629061C91288E2810100F08F30046
:10012800F4017308F100F0017008AC007108AD002B
:100138000E087007F30071080318013EF4007308F5
:10014800AC007408AD007308F0007408F100F00DFD
:10015800F10D7010B4227008A5007108A60072088D
:10016800A7007308A8000030F4000030F5006830DC
:10017800F6008430F70094217008B5007108B600C5
:100188007208B7007308B8003508AE003608AF002B
:100198003708B0003808B1003508F0003608F1001B
:1001A8003708F2003808F3004B2270088800350839
:1001B800F4003608F5003708F6003808F700003074
:1001C800F0000030F1006030F2008130F300CA2204
:1001D800013003180030F00070080319FB280130C3
:1001E800A3002408B9000130BA008E220029A30117
:1001F8002408B900BA018E228B108B178F018E014B
:100208008B150B122208F0002108FD0034088A0023
:0A021800330E8300FF0E7F0E090075
:08022200FA1FF213003008007E
:10022A007B15FB1F1F290130F300F201F101F001D8
:08023A00FA0DF20CFF30080080
:0E024200F201F101F001F801F30100300800B3
:0E025000831203132A088A002908820008007E
:10025E00831603139816903083129800831687170F
:10026E00071383128C1E3E291A08F0003829080045
:10027E007B14FB1F4A29F201FA1FFF30F200F10036
:0A028E00F000FA0DF20CFF3008003A
:10029800A0017208031D61297108F2007008F100BD
:1002A800F001A0157208031D61297108F200F1011F
:1002B800A0112016720803196F292008F302031DE4
:1002C800031C73290310F21B7729F00DF10DF20DB1
:1002D800F30B672973290130FC0021217A290230A8
:0E02E800FC0015217A290430FC0011210800C9
:1002F600FB14FB1F8529FF30F300F200F100F0002C
:08030600FA0DF20CFF300800B3
:06030E00FB15FF300800A2
:10031400831603139818902900008A2983123B0836
:040324009900080034
:10032800831203137408003A031DAF297508003AB5
:10033800031DAF297608003A031DAF297708003A54
:10034800031DAF29FF30F000FF30F1007F30F200CD
:10035800FF30F3004A2A83120313770803193E2A51
:1003680073080319412A720876068039FA00F217D1
:10037800F617A0017208F8007108FC007008FD006B
:100388007408FD027508031C750FFC027608031C2F
:10039800760FF802F801FC01FD01031CDA290310AD
:1003A800F20CF10CF00CF80C0130A0007708F30205
:1003B800031CE4297E302007F3070318442AE9299F
:1003C8007E302007F307031C472A1830FA07FD0D73
:1003D800FC0DF80DF00DF10DF20DA00D7408F002F2
:1003E8007508031C750FF1027608031C760FF202DC
:1003F800760DA004201C022A7D140D2A7408F0072B
:1004080075080318750FF10776080318760AF207BE
:100418007D10FA031F307A05031DEB297B1B7D1C19
:10042800342A0310F00DF10DF20DA00D7408F0023E
:100438007508031C750FF1027608031C760FF2028B
:10044800760D20040139FD070318FC0A0319F80A80
:10045800031D342AF80CFC0CFD0CF30A0319442A7A
:10046800FA1FF8137808F2007C08F1007D08F00004
:100478000030492A01308721492A02302121492A9E
:0E04880004307B21492A0830152100000800AD
:1004960083120313FB01FC01FA0173080319782A7E
:1004A600FA13F2178630F302F31B5C2A03195C2A4F
:1004B6007A2AF309F30A08307302031C692AF30047
:1004C600F20DF2017308031D0310702A7308031955
:1004D600702A0310F20CF30B6C2A7B1B721C782A11
:1004E600031C782AF20A03197F2AF101822A7B1457
:1004F600FB1F852AF101852A0130FC00872A00307E
:10050600FC00872AFF30FC00FC0803198B2A3F21D8
:060516007208F00008006D
:10051C00831203133908013A031D9D2A3A08003A45
:10052C00031D9D2A0A30AB000A30BB008A213A0811
:10053C00013A031DA62A1430AB001430BB008A21EB
:10054C003908003A031DB32A3A08003A031DB32AAE
:0C055C006430AB006430BB008A21080052
:10056800831203137008F8007108F000F101F2011A
:10057800F301FB01FC019630F300FA017008F10069
:0C0588007808F000F801F2014C21080096
:1005940083120313FA017308031D7A147708031DE9
:1005A400FA147A080319162B033A0319E12A7A1864
:1005B400DE2AF61F142B122BF21F122B142B720897
:1005C4008039FA00F21376088039F6137A06031993
:1005D400EF2A7A080319122B142B770873020319D4
:1005E400F62A031C0A2B0E2B760872020319FD2A25
:1005F400031C0A2B0E2B750871020319042B031C10
:100604000A2B0E2B740870020319162B03180E2BD9
:10061400FA080319142B122BFA080319122B142BA2
:10062400031408000310080003140315080008004D
:100634008316031788018901831287138813031310
:10064400850183168501FF3083128600FF308316EF
:10065400860087018312870183168801831288012B
:10066400831689018312890119308316990018159C
:100674002F21203090008B170B178B150B1083162E
:0806840096140B168B10080000
:10068C0028218A110A128000840AA90A0319AA0ACD
:08069C00F003031D462B0800CA
:1006A40083120313A301A4011A2380308312B2001E
:1006B4008F018E012418602B0910612B0914231853
:1006C400652B8910662B89148618792B1A30FD0046
:1006D400FD0B6A2B00000510000000000000000064
:1006E40005140630FD00FD0B752B000005100618DF
:1006F4008C2B1A30FD00FD0B7D2B000085100000B3
:1007040000000000000085140630FD00FD0B882B5E
:08071400000085105A2B8D2B0B
:04400E00F42F000784
:00000001FF
