:020000008D2B46
:10000800FF00030E8301B3000A08B4008A017008D8
:10001800A2007D08A10010148B138B18A028861C41
:100028001628132810100F08F300F4017308F100C4
:10003800F0017008AC007108AD000E08F007031855
:10004800F10A7008AC007108AD000A30F400003005
:10005800F5007F227008F4007108F500F40DF50D25
:100068007410F40DF50D7410F40DF50D741074087A
:10007800F0007508F10069227008A5007108A60053
:100088007208A7007308A8000030F4000030F500DB
:100098006830F6008430F700B2217008B5007108A6
:1000A800B6007208B7007308B8003508AE00360805
:1000B800AF003708B0003808B1003508F00036083E
:1000C800F1003708F2003808F3009C227008880015
:1000D8000030F4000030F5004830F6008430F700B6
:1000E8003508F0003608F1003708F2003808F30048
:1000F800DF22013003180030F000700803198C2843
:100108000130A4000130B9002308BA002F23912838
:10011800A401B9012308BA002F230B108B178F01F4
:100128008E018230FC00DD30FD00FD0B9928FC0BB0
:1001380099280000000024298B1C2429061CA528C6
:10014800A22810100F08F300F4017308F100F00161
:100158007008AC007108AD000E08F0070318F10A2A
:100168007008AC007108AD000A30F4000030F500EA
:100178007F227008F4007108F500F40DF50D741075
:10018800F40DF50D7410F40DF50D74107408F000ED
:100198007508F10069227008A5007108A6007208A8
:1001A800A7007308A8000030F4000030F50068309C
:1001B800F6008430F700B2217008B5007108B60067
:1001C8007208B7007308B8003508AE003608AF00EB
:1001D8003708B0003808B1003508F0003608F100DB
:1001E8003708F2003808F3009C22700888000030B5
:1001F800F4000030F5004830F6008430F700350888
:10020800F0003608F1003708F2003808F300DF2262
:10021800013003180030F000700803191B29013061
:10022800A3002408B9000130BA002F232029A30114
:100238002408B900BA012F238B108B178F018E0168
:100248002208F0002108FD0034088A00330E8300DC
:06025800FF0E7F0E0900FD
:10025E007B15FB1F39290130F300F201F101F0018A
:08026E00FA0DF20CFF3008004C
:08027600FA1FF213003008002A
:0E027E00F201F101F001F801F3010030080077
:0E028C00831203132A088A0029088200080042
:10029A0083160313981690308312980083168717D3
:1002AA00071383128C1E5C291A08F00056290800CD
:1002BA007B14FB1F6829F201FA1FFF30F200F100DC
:0A02CA00F000FA0DF20CFF300800FE
:1002D400A0017208031D7F297108F2007008F10063
:1002E400F001A0157208031D7F297108F200F101C5
:1002F400A0112016720803198D292008F302031D8A
:10030400031C91290310F21B9529F00DF10DF20D38
:10031400F30B852991290130FC003F2198290230F3
:0E032400FC002F2198290430FC003B2108002A
:100332008316031398189F290000992983123B08FA
:040342009900080016
:10034600FB14FB1FAD29FF30F300F200F100F000B3
:08035600FA0DF20CFF30080063
:06035E00FB15FF30080052
:10036400831203137408003A031DCD297508003A5B
:10037400031DCD297608003A031DCD297708003ADC
:10038400031DCD29FF30F000FF30F1007F30F20073
:10039400FF30F300682A83120313770803195C2AD9
:1003A400730803195F2A720876068039FA00F21777
:1003B400F617A0017208F8007108FC007008FD002F
:1003C4007408FD027508031C750FFC027608031CF3
:1003D400760FF802F801FC01FD01031CF829031053
:1003E400F20CF10CF00CF80C0130A0007708F302C9
:1003F400031C022A7E302007F3070318622A072A07
:100404007E302007F307031C652A1830FA07FD0D18
:10041400FC0DF80DF00DF10DF20DA00D7408F002B5
:100424007508031C750FF1027608031C760FF2029F
:10043400760DA004201C202A7D142B2A7408F007B2
:1004440075080318750FF10776080318760AF20782
:100454007D10FA031F307A05031D092A7B1B7D1CBE
:10046400522A0310F00DF10DF20DA00D7408F002E4
:100474007508031C750FF1027608031C760FF2024F
:10048400760D20040139FD070318FC0A0319F80A44
:10049400031D522AF80CFC0CFD0CF30A0319622A02
:1004A400FA1FF8137808F2007C08F1007D08F000C8
:1004B4000030672A0130AF21672A02303F21672AC2
:0E04C4000430A321672A08302F210000080011
:1004D200831203137008F8007108F000F101F201B1
:1004E200F301FB01FC019630F300FA017008F10000
:0C04F2007808F000F801F2016A2108000F
:1004FE0083120313F801F9011030FC00710DF80D91
:10050E00F90D7408F8027508031C750FF90203182B
:10051E00972A7408F80775080318750FF907031062
:0A052E00F00DF10DFC0B852A08000A
:1005380083120313FB01FC01FA0173080319C92A8A
:10054800FA13F2178630F302F31BAD2A0319AD2A0A
:10055800CB2AF309F30A08307302031CBA2AF30002
:10056800F20DF2017308031D0310C12A7308031961
:10057800C12A0310F20CF30BBD2A7B1B721CC92A7B
:10058800031CC92AF20A0319D02AF101D32A7B14C1
:10059800FB1FD62AF101D62A0130FC00D82A0030E8
:1005A800FC00D82AFF30FC00FC080319DC2A5D2176
:0605B8007208F0000800CB
:1005BE0083120313FA017308031D7A147708031DBF
:1005CE00FA147A0803192B2B033A0319F62A7A1810
:1005DE00F32AF61F292B272BF21F272B292B720804
:1005EE008039FA00F21376088039F6137A06031969
:1005FE00042B7A080319272B292B7708730203196A
:10060E000B2B031C1F2B232B760872020319122BA4
:10061E00031C1F2B232B750871020319192B031CA6
:10062E001F2B232B7408700203192B2B0318232B5B
:10063E00FA080319292B272BFA080319272B292B24
:10064E000314080003100800031403150800080023
:10065E00831203133908013A031D3E2B3A08003A60
:10066E00031D3E2B0A30AB000A30BB0099213A081D
:10067E00013A031D472B1430AB001430BB009921F7
:10068E003908003A031D542B3A08003A031D542B27
:0C069E006430AB006430BB009921080000
:1006AA0046218A110A128000840AA90A0319AA0A91
:0806BA00F003031D552B08009D
:1006C2008316031788018901831287138813031382
:1006D200850183168501FF3083128600FF30831661
:1006E200860087018312870183168801831288019D
:1006F20083168901831289010C308316990018151B
:100702004D21203090008B170B178B150B10831681
:0807120096140B168B10080071
:10071A0083120313A301A401612380308312B20060
:10072A008F018E0124189B2B09109C2B0914231866
:10073A00A02B8910A12B89148618B02B0D30FD002F
:10074A00FD0BA52B05100000000005140330FD0069
:10075A00FD0BAD2B05100618BF2B0D30FD00FD0B50
:10076A00B42B85100000000085140330FD00FD0B3A
:08077A00BC2B8510952BC02B50
:04400E00F42F000784
:00000001FF
