:020000004E2B85
:10000800FF00030E8301B3000A08B4008A017008D8
:10001800A2007D08A10010148B138B188A28861C57
:100028001628132810100F08F300F4017308F100C4
:10003800F0017008AC007108AD000E087007F300FD
:1000480071080318013EF4007308AC007408AD0091
:100058007308F0007408F100F00DF10D7010B02273
:100068007008A5007108A6007208A7007308A80008
:100078000030F4000030F5006830F6008430F700F6
:1000880090217008B5007108B6007208B7007308AF
:10009800B8003508AE003608AF003708B000380899
:1000A800B1003508F0003608F1003708F2003808CA
:1000B800F3004722700888000030F4000030F50093
:1000C8007030F6008230F7003508F0003608F1008D
:1000D8003708F2003808F300C62201300318003050
:1000E800F0007008031980280130A4000130B9001D
:1000F8002308BA008A228528A401B9012308BA0076
:100108008A220B108B178F018E0102298B1C022962
:10011800061C8F288C2810100F08F300F4017308B0
:10012800F100F0017008AC007108AD000E0870070E
:10013800F30071080318013EF4007308AC0074085A
:10014800AD007308F0007408F100F00DF10D7010A7
:10015800B0227008A5007108A6007208A7007308ED
:10016800A8000030F4000030F5006830F600843054
:10017800F70090217008B5007108B6007208B70042
:100188007308B8003508AE003608AF003708B0006D
:100198003808B1003508F0003608F1003708F200D9
:1001A8003808F3004722700888003508F40036083C
:1001B800F5003708F6003808F7000030F000003086
:1001C800F1006030F2008130F300C62201300318DC
:1001D8000030F00070080319F9280130A300240842
:1001E800B9000130BA008A22FE28A3012408B90008
:1001F800BA018A228B108B178F018E012208F0001A
:100208002108FD0034088A00330E8300FF0E7F0E9C
:020218000900DB
:08021A00FA1FF2130030080086
:100222007B15FB1F1B290130F300F201F101F001E4
:08023200FA0DF20CFF30080088
:0E023A00F201F101F001F801F30100300800BB
:0E024800831203132A088A0029088200080086
:100256008316031398169030831298008316871717
:10026600071383128C1E3A291A08F0003429080055
:100276007B14FB1F4629F201FA1FFF30F200F10042
:0A028600F000FA0DF20CFF30080042
:10029000A0017208031D5D297108F2007008F100C9
:1002A000F001A0157208031D5D297108F200F1012B
:1002B000A0112016720803196B292008F302031DF0
:1002C000031C6F290310F21B7329F00DF10DF20DC1
:1002D000F30B63296F290130FC001D2176290230C0
:0E02E000FC00112176290430FC000D210800DD
:1002EE00FB14FB1F8129FF30F300F200F100F00038
:0802FE00FA0DF20CFF300800BC
:06030600FB15FF300800AA
:10030C008316031398188C290000862983123B0846
:04031C00990008003C
:10032000831203137408003A031DAB297508003AC1
:10033000031DAB297608003A031DAB297708003A64
:10034000031DAB29FF30F000FF30F1007F30F200D9
:10035000FF30F300462A83120313770803193A2A61
:10036000730803193D2A720876068039FA00F217DD
:10037000F617A0017208F8007108FC007008FD0073
:100380007408FD027508031C750FFC027608031C37
:10039000760FF802F801FC01FD01031CD6290310B9
:1003A000F20CF10CF00CF80C0130A0007708F3020D
:1003B000031CE0297E302007F3070318402AE529B3
:1003C0007E302007F307031C432A1830FA07FD0D7F
:1003D000FC0DF80DF00DF10DF20DA00D7408F002FA
:1003E0007508031C750FF1027608031C760FF202E4
:1003F000760DA004201CFE297D14092A7408F0073C
:1004000075080318750FF10776080318760AF207C6
:100410007D10FA031F307A05031DE7297B1B7D1C25
:10042000302A0310F00DF10DF20DA00D7408F0024A
:100430007508031C750FF1027608031C760FF20293
:10044000760D20040139FD070318FC0A0319F80A88
:10045000031D302AF80CFC0CFD0CF30A0319402A8A
:10046000FA1FF8137808F2007C08F1007D08F0000C
:100470000030452A01308321452A02301D21452ABA
:0E04800004307721452A0830112100000800C1
:10048E0083120313FB01FC01FA0173080319742A8A
:10049E00FA13F2178630F302F31B582A0319582A5F
:1004AE00762AF309F30A08307302031C652AF30057
:1004BE00F20DF2017308031D03106C2A7308031961
:1004CE006C2A0310F20CF30B682A7B1B721C742A25
:1004DE00031C742AF20A03197B2AF1017E2A7B146B
:1004EE00FB1F812AF101812A0130FC00832A003092
:1004FE00FC00832AFF30FC00FC080319872A3B21ED
:06050E007208F000080075
:10051400831203133908013A031D992A3A08003A51
:10052400031D992A0A30AB000A30BB0086213A0821
:10053400013A031DA22A1430AB001430BB008621FB
:100544003908003A031DAF2A3A08003A031DAF2ABE
:0C0554006430AB006430BB00862108005E
:10056000831203137008F8007108F000F101F20122
:10057000F301FB01FC019630F300FA017008F10071
:0C0580007808F000F801F20148210800A2
:10058C0083120313FA017308031D7A147708031DF1
:10059C00FA147A080319122B033A0319DD2A7A1874
:1005AC00DA2AF61F102B0E2BF21F0E2B102B7208B3
:1005BC008039FA00F21376088039F6137A0603199B
:1005CC00EB2A7A0803190E2B102B770873020319E8
:1005DC00F22A031C062B0A2B760872020319F92A3D
:1005EC00031C062B0A2B750871020319002B031C24
:1005FC00062B0A2B740870020319122B03180A2BF2
:10060C00FA080319102B0E2BFA0803190E2B102BBA
:10061C000314080003100800031403150800080055
:10062C008316031788018901831287138813031318
:10063C00850183168501FF3083128600FF308316F7
:10064C008600870183128701831688018312880133
:10065C0083168901831289011930831699001815A4
:10066C002B21203090008B170B178B150B1083163A
:08067C0096140B168B10080008
:1006840024218A110A128000840AA90A0319AA0AD9
:08069400F003031D422B0800D6
:10069C0083120313A301A401162380308312B2002A
:1006AC008F018E0124185C2B09105D2B0914231863
:1006BC00612B8910622B89148618752B1A30FD005A
:1006CC00FD0B662B00000510000000000000000070
:1006DC0005140630FD00FD0B712B000005100618EB
:1006EC00882B1A30FD00FD0B792B000085100000C3
:1006FC0000000000000085140630FD00FD0B842B6B
:08070C0000008510562B892B1B
:04400E00F42F000784
:00000001FF
